:020000040800F2
:10000000B0060020890B0008290D00082B0D000800
:100010002F0D0008330D0008370D00080000000008
:100020000000000000000000000000003B0D000880
:100030003D0D0008000000003F0D0008410D0008C4
:10004000A30B0008A30B0008A30B0008A30B0008D8
:10005000A30B0008A30B0008A30B0008A30B0008C8
:10006000A30B0008A30B0008A30B0008A30B0008B8
:10007000A30B0008A30B0008A30B0008A30B0008A8
:10008000A30B0008A30B0008A30B0008A30B000898
:10009000A30B0008A30B0008A30B0008A30B000888
:1000A000A30B0008A30B0008A30B0008A30B000878
:1000B000A30B0008A30B0008A30B0008A30B000868
:1000C000A30B0008A30B0008A30B0008A30B000858
:1000D000A30B0008A30B0008A30B0008A30B000848
:1000E000A30B0008A30B0008A30B0008A30B000838
:1000F000A30B0008A30B0008A30B0008A30B000828
:10010000A30B0008A30B0008A30B0008A30B000817
:10011000A30B0008A30B0008A30B0008A30B000807
:10012000A30B0008A30B0008A30B0008A30B0008F7
:1001300000F002F800F03AF80AA090E8000C8244BF
:100140008344AAF10107DA4501D100F02FF8AFF29C
:10015000090EBAE80F0013F0010F18BFFB1A43F0A5
:1001600001031847540F0000740F0000103A24BF19
:1001700078C878C1FAD8520724BF30C830C144BF0C
:1001800004680C607047000000230024002500264E
:10019000103A28BF78C1FBD8520728BF30C148BFEA
:1001A0000B6070471FB51FBD10B510BD00F049FFB3
:1001B0001146FFF7F7FF00F052FD00F067FF03B4B0
:1001C000FFF7F2FF03BC00F06BFF00003149014371
:1001D000314A1160704770B5002100230F22C478A6
:1001E00004B32D4C246804F4E064C4F5E064210AEF
:1001F000C1F10403CA40447804FA03F1847814403E
:1002000021430901254C0678A155047804F01F0507
:100210000124AC4005786D11AD0005F1E025C5F86D
:10022000004109E0047804F01F050124AC401C4D96
:100230000678761145F8264070BD1A4A0A400243F6
:10024000154B1B1F1A60704739B1134A121D1268F3
:100250000243114B1B1D1A6006E00F4A121D126863
:1002600082430D4B1B1D1A607047042808D14FF0C4
:10027000E021096941F004014FF0E022116107E03B
:100280004FF0E021096921F004014FF0E0221161F3
:10029000704700000000FA050CED00E000E400E00B
:1002A00080E100E080FFFF1FDF48006840F00100B0
:1002B000DD49086008464068DC490840DA49486082
:1002C00008460068DA490840D749086008460068CF
:1002D00020F4802008600846406820F4FE00486052
:1002E0004FF41F0088607047CF49096821F48031BE
:1002F000CD4A11601146096821F480211160B0F5E2
:10030000803F03D0B0F5802F0ED106E0C6490968C2
:1003100041F48031C44A116007E0C349096841F4DF
:10032000A021C14A116000E000BF00BF704710B5B6
:1003300001460022002300204A11012A02D1BA4CB2
:10034000236806E0022A02D1B74C236A01E0B64CCA
:10035000636A01F01F02012494401C400CB101208B
:1003600000E0002010BD38B50020009000240025DA
:1003700000BF3120FFF7DBFF05460098401C0090CE
:100380000098B0F5A06F01D0002DF2D03120FFF71A
:10039000CEFF08B1012400E00024204638BD01460C
:1003A0000020A14A106820F0F80040EAC100106067
:1003B0007047A04908607047024600209A4B586871
:1003C00020F47C1042EA01031843974B58607047B1
:1003D00098490866704701460020934A506820F00B
:1003E00003000843506070478F48406800F00C00DD
:1003F0007047014600208C4A506820F0F000084306
:100400005060704701460020874A506820F4E06041
:1004100008435060704701460020834A506820F42A
:10042000605040EAC1005060704729B17E4A527A5C
:1004300002437D4B5A7204E07B4A527A82437A4BE4
:100440005A7270477B49D8310860704701460020D6
:10045000754A506820F440400843506070470021BE
:10046000714A20321170704A82F82010012802D09F
:1004700004280AD104E001216B4A2032117005E002
:100480000521694A2032117000E000BF00BF7047AB
:100490006949086070476449096A0143624A116208
:1004A0007047654944390860704730B50021002223
:1004B000002400235C4D6D6805F00C0121B1042976
:1004C00005D0082923D105E05C4D056022E05B4D95
:1004D00005601FE0544D6D6805F47012524D6D6853
:1004E00005F48034022505EB92421CB9544D554366
:1004F00005600BE04C4D6D6805F400351DB1504DA5
:100500005543056002E04D4D5543056002E04B4DFB
:10051000056000BF00BF444D6D6805F0F00109099A
:10052000484D6B5C0568DD4045603F4D6D6805F4E6
:10053000E061090A434D6B5C4568DD4085603A4DDA
:100540006D6805F46051C90A3E4D6B5C4568DD403D
:10055000C560354D6D6805F44041890B3A4D6B5CC3
:10056000C568B5FBF3F5056130BD29B12E4A526966
:1005700002432D4B5A6104E02B4A526982432A4BB5
:100580005A61704729B1284A92690243264B9A6101
:1005900004E0254A92698243234B9A61704729B14E
:1005A000214AD2690243204BDA6104E01E4AD26933
:1005B00082431D4BDA61704729B11B4AD26802435E
:1005C000194BDA6004E0184AD2688243164BDA60AD
:1005D000704729B1144A12690243134B1A6104E0AF
:1005E000114A12698243104B1A617047124940390F
:1005F000086070470F49C86470470B49C87170475D
:100600000948406A40F080700749486270470146D7
:100610000020054A92680A400AB1012000E000204B
:100620007047014988727047001002400000FFF8CF
:10063000FFFFF6FE000042428004424200127A00B0
:1006400000093D00000000201000002010B5044605
:10065000CC48844208D101210420FFF7ADFF0021DE
:100660000420FFF7A9FF46E0C748844208D10121D2
:100670000820FFF7A1FF00210820FFF79DFF3AE0C7
:10068000C248844208D101211020FFF795FF0021C4
:100690001020FFF791FF2EE0BD48844208D10121D0
:1006A0002020FFF789FF00212020FFF785FF22E0AF
:1006B000B848844208D101214020FFF77DFF002186
:1006C0004020FFF779FF16E0B348844208D10121AA
:1006D0008020FFF771FF00218020FFF76DFF0AE007
:1006E000AE48844207D101218015FFF765FF002144
:1006F000A015FFF761FF10BD10B501210846FFF7F7
:100700005BFF00210120FFF757FF10BD2DE9F041ED
:10071000024600250026002000230024002791F82F
:1007200003C00CF00F0591F803C00CF0100CBCF1E5
:10073000000F03D091F802C04CEA050591F800C003
:10074000BCF1000F31D0146800202BE04FF0010CF9
:100750000CFA00F3B1F800C00CEA03069E4220D167
:1007600083004FF00F0C0CFA03F7BC4305FA03FCAF
:100770004CEA040491F803C0BCF1280F06D14FF0F5
:10078000010C0CFA00FCC2F814C00AE091F803C096
:10079000BCF1480F05D14FF0010C0CFA00FCC2F877
:1007A00010C0401C0828D1D31460B1F800C0BCF1BF
:1007B000FF0F34DD546800202EE000F1080C4FF0EC
:1007C000010808FA0CF3B1F800C00CEA03069E42D7
:1007D00021D183004FF00F0C0CFA03F7BC4305FA4C
:1007E00003FC4CEA040491F803C0BCF1280F05D1C6
:1007F00000F1080C08FA0CF8C2F8148091F803C054
:10080000BCF1480F07D100F1080C4FF0010808FABD
:100810000CF8C2F81080401C0828CED35460BDE804
:10082000F0814FF6FF710180022181700421C170B7
:1008300070470246002093680B400BB1012000E096
:10084000002070470146886880B270470246002049
:10085000D3680B400BB1012000E000207047014637
:10086000C86880B2704701617047416170470AB142
:10087000016100E041617047C16070474FF4803210
:100880000A4382618161826182698269704702469E
:100890000020434B18684FF68073184040EA02105E
:1008A00008433F4B186070473E49C8617047F0B538
:1008B0000A46002300240021002500F00046B6F17E
:1008C000004F02D1364EF16901E0354E7168C0F338
:1008D000034583B200F44016B6F5401F08D121F05D
:1008E00070612F4E766826F070662D4F7E6012E0A4
:1008F00000F48016B6F5801F06D1032606FA05F42B
:10090000A14341F0706106E0460D360103FA06F698
:10091000B14341F0706122B1460D360103FA06F68B
:10092000314300F00046B6F1004F02D11C4EF16198
:1009300001E01B4E7160F0BD30B500228B071C0F2B
:100940000F2303FA04F2164B08338C1053F82430AB
:100950009343134C08348D1044F8253023468C10F3
:1009600053F824308C07240F00FA04F423430C4C72
:1009700008348D1044F8253030BD0A49DC31086058
:100980007047000000080140000C014000100140C9
:100990000014014000180140001C014000200140EB
:1009A00000000140000020420CB5002001900090A2
:1009B0006C48006840F480306A49086000BF6948AC
:1009C000006800F4003000900198401C01900098ED
:1009D00018B90198B0F5A06FF1D16248006800F431
:1009E000003010B10120009001E00020009000983C
:1009F000012843D15C48006840F010005A49086063
:100A00000846006820F0030008600846006840F0CF
:100A100002000860534840685249486008464068F0
:100A200048600846406840F4806048600846406876
:100A300020F47C1048600846406840F4E8104860A4
:100A40000846006840F08070086000BF45480068B4
:100A500000F000700028F9D04248406820F0030000
:100A6000404948600846406840F00200486000BFC6
:100A70003C48406800F00C000828F9D10CBD10B5C6
:100A8000FFF792FF10BD10B53648006840F0010036
:100A90003449086008464068344908403149486094
:100AA00008460068324908402E4908600846006838
:100AB00020F4802008600846406820F4FE0048606A
:100AC0004FF41F008860FFF7DAFF4FF000602949FC
:100AD000086010BD10B5002100200022214B5B688A
:100AE00003F00C0121B1042906D0082928D107E020
:100AF000214B224C236027E01F4B204C236023E036
:100B0000184B5B6803F47010164B5B6803F480327B
:100B1000022303EB904022B9194B4343174C236047
:100B20000DE0104B5B6803F4003323B1144B4343D7
:100B3000124C236003E0104B4343104C236003E04E
:100B40000D4B0E4C236000BF00BF064B5B68C3F328
:100B500003130C4CE15C094B1B68CB40074C236032
:100B600010BD000000100240002002400000FFF80D
:100B7000FFFFF6FE08ED00E000127A0014000020EE
:100B800000093D0018000020094880470948004737
:100B9000FEE7FEE7FEE7FEE7FEE7FEE7FEE7FEE72D
:100BA000FEE7FEE704480549054A064B704700008A
:100BB000870A000831010008B0000020B0060020BC
:100BC000B0020020B002002008B500214FF0006004
:100BD000FFF733FB4FF4C060FFF7F8FA06208DF8FB
:100BE000000000208DF801008DF8020001208DF832
:100BF00003006846FFF7EFFA08BD10B5FFF7E4FF02
:100C000001214FF4CE70FFF7BDFC4AF260403C4931
:100C100008801020C870032088703A48FFF776FDDE
:100C200037493948FFF772FD35493848FFF76EFDFF
:100C30004FF48040324908804820C87003208870F3
:100C40003248FFF763FD4FF400402D4908804820EB
:100C5000C870032088702E48FFF758FD10BDFFF7BD
:100C6000CCFF4FF470712748FFF7FDFD4FF4804132
:100C70002648FFF7F8FD4FF400412548FFF7F3FD44
:100C800001212448FFF7F1FD00202349086000BF3F
:100C900000F036F90028FBD100F067F9C9201F49A0
:100CA0004870CF208870BA20C870A3200871B12086
:100CB0004871A6208871C720C871B6200872B52077
:100CC0004872E7208872D720C872D32008730C209E
:100CD0000870084600F07CF911E01148006870B90E
:100CE0000E4800F0BFF850B90C484078312805D1C3
:100CF00009480068C0430B49C1F8980100BFECE700
:100D000028000020001C014000100140000C0140A0
:100D10000020014000080140988123422C0000205F
:100D20003C01244200802342704700BFFEE700BF21
:100D3000FEE700BFFEE700BFFEE770477047704761
:100D400070470000002107E0642201E0531EDAB280
:100D5000002AFBDC4B1CD9B28142F5DC7047002035
:100D600000E0401CB0F5167FFBD87047002119E069
:100D700000F08002802A03D10122A54B1A6002E014
:100D80000022A34B1A604206100E0122A04B083B22
:100D90001A60A04AD2F838210243D0B200221A6069
:100DA0004A1CD1B20829E3DB704770B505460C46F2
:100DB0000020994908602846FFF7D8FF06462046DC
:100DC000FFF7D4FF01209549C1F8A801304670BD56
:100DD00030B504460020904908602046FFF7C6FF62
:100DE000FF20FFF7C3FF054601208C49C1F8A80189
:100DF000284630BD2DE9F04107460D461646002035
:100E0000854908603846FFF7B1FF8046002405E0B9
:100E1000FF20FFF7ABFF2855601CC4B2B442F7DBDC
:100E200001207D4908604046BDE8F0812DE9F04190
:100E300007460C4615460020774908603846FFF7FC
:100E400095FF8046002605E014F8010BFFF78EFFA2
:100E5000701CC6B2AE42F7DB01206F490860404605
:100E6000BDE8F08130B504460720FFF7B1FF054625
:100E700029462720FFF799FF05F0400098B1002090
:100E800067490860202221466120FFF7B3FFFF2158
:100E9000E220FFF78AFF01206249C1F89401FFF7C1
:100EA0005EFF002030BD0120FCE730B50546002084
:100EB0005B49086020222946A020FFF7B7FF0120E8
:100EC0005849C1F8940100BF574800680128FBD079
:100ED0000720FFF77DFF044621462720FFF765FF27
:100EE00004F0100028B1FF21E120FFF75EFF102081
:100EF00030BD04F0200008B12020F9E7FF20F7E71B
:100F00000FB54AA103C9CDE902010020009001906C
:100F10003F490839086001204049C1F8A801002074
:100F20003F490860052202A93020FFF77FFF052214
:100F300069461020FFF75EFF9DF80000112812D1CE
:100F40009DF8010022280ED19DF8020033280AD115
:100F50009DF80300442806D19DF80400552802D1CD
:100F6000002004B000BD0120FBE700B500202C49A3
:100F7000086020213120FFF718FFFF21E220FFF752
:100F800014FF05222B493020FFF750FF05222A4984
:100F90002A20FFF74BFF01212120FFF706FF012147
:100FA0002220FFF702FF1A212420FFF7FEFE002176
:100FB0002520FFF7FAFE0F212620FFF7F6FE0F216E
:100FC0002020FFF7F2FE01201649C1F8940100BD70
:100FD00010B504460020124908600E212020FFF7BA
:100FE000E4FE01200F49C1F894010F20FFF7AAFE8B
:100FF0002046FFF75AFF0020094908600F212020F2
:10100000FFF7D3FE01200749C1F8940110BD00008D
:10101000BC81214200802142A881234200802342DA
:1010200094012242000022423C0124421122334416
:1010300055000000AE100008B3100008704770475C
:101040007047754600F028F8AE46050069465346DD
:1010500020F00700854618B020B5FFF7A3FDBDE8D6
:1010600020404FF000064FF000074FF000084FF00F
:10107000000B21F00701AC46ACE8C009ACE8C009A0
:10108000ACE8C009ACE8C0098D4670470446AFF330
:1010900000802046FFF793F8004870474C0000207E
:1010A00001491820ABBEFEE7260002007047FFFF93
:1010B000FFFFFFFFFFFFFFFFD81000080000002028
:1010C0002C0000006C010008041100082C00002016
:1010D00084060000880100080000000001020304EB
:1010E00001020304060708090204060800A24A04D4
:1010F00000000000000000000102030406070809C8
:0411000000000000EB
:0400000508000131BD
:00000001FF
